{
  "contractName": "Twitter",
  "abi": [
    {
      "constant": true,
      "inputs": [],
      "name": "tweetCount",
      "outputs": [
        {
          "name": "",
          "type": "uint256"
        }
      ],
      "payable": false,
      "stateMutability": "view",
      "type": "function",
      "signature": "0x4a7782b3"
    },
    {
      "constant": true,
      "inputs": [
        {
          "name": "",
          "type": "uint256"
        }
      ],
      "name": "tweets",
      "outputs": [
        {
          "name": "id",
          "type": "uint256"
        },
        {
          "name": "content",
          "type": "string"
        },
        {
          "name": "account",
          "type": "string"
        }
      ],
      "payable": false,
      "stateMutability": "view",
      "type": "function",
      "signature": "0xe8d857b0"
    },
    {
      "inputs": [],
      "payable": false,
      "stateMutability": "nonpayable",
      "type": "constructor",
      "signature": "constructor"
    },
    {
      "constant": false,
      "inputs": [
        {
          "name": "_content",
          "type": "string"
        }
      ],
      "name": "createTweet",
      "outputs": [],
      "payable": false,
      "stateMutability": "nonpayable",
      "type": "function",
      "signature": "0x7c9cd2bc"
    }
  ],
  "bytecode": "0x60806040526000805534801561001457600080fd5b5060408051808201909152600e81527f6d79206669727374205477656574000000000000000000000000000000000000602082015261005b90640100000000610060810204565b610198565b60008054600190810180835560408051606081018252828152602080820187815283518085018552600981527f6d794163636f756e740000000000000000000000000000000000000000000000818401528385015293865284815291909420845181559151805192936100db939085019291909101906100fd565b50604082015180516100f79160028401916020909101906100fd565b50505050565b828054600181600116156101000203166002900490600052602060002090601f016020900481019282601f1061013e57805160ff191683800117855561016b565b8280016001018555821561016b579182015b8281111561016b578251825591602001919060010190610150565b5061017792915061017b565b5090565b61019591905b808211156101775760008155600101610181565b90565b6104e8806101a76000396000f3fe6080604052600436106100565763ffffffff7c01000000000000000000000000000000000000000000000000000000006000350416634a7782b3811461005b5780637c9cd2bc14610082578063e8d857b014610137575b600080fd5b34801561006757600080fd5b50610070610246565b60408051918252519081900360200190f35b34801561008e57600080fd5b50610135600480360360208110156100a557600080fd5b8101906020810181356401000000008111156100c057600080fd5b8201836020820111156100d257600080fd5b803590602001918460018302840111640100000000831117156100f457600080fd5b91908080601f01602080910402602001604051908101604052809392919081815260200183838082843760009201919091525092955061024c945050505050565b005b34801561014357600080fd5b506101616004803603602081101561015a57600080fd5b50356102e9565b604051808481526020018060200180602001838103835285818151815260200191508051906020019080838360005b838110156101a8578181015183820152602001610190565b50505050905090810190601f1680156101d55780820380516001836020036101000a031916815260200191505b50838103825284518152845160209182019186019080838360005b838110156102085781810151838201526020016101f0565b50505050905090810190601f1680156102355780820380516001836020036101000a031916815260200191505b509550505050505060405180910390f35b60005481565b60008054600190810180835560408051606081018252828152602080820187815283518085018552600981527f6d794163636f756e740000000000000000000000000000000000000000000000818401528385015293865284815291909420845181559151805192936102c793908501929190910190610421565b50604082015180516102e3916002840191602090910190610421565b50505050565b600160208181526000928352604092839020805481840180548651600296821615610100026000190190911695909504601f810185900485028601850190965285855290949193929091908301828280156103855780601f1061035a57610100808354040283529160200191610385565b820191906000526020600020905b81548152906001019060200180831161036857829003601f168201915b50505060028085018054604080516020601f60001961010060018716150201909416959095049283018590048502810185019091528181529596959450909250908301828280156104175780601f106103ec57610100808354040283529160200191610417565b820191906000526020600020905b8154815290600101906020018083116103fa57829003601f168201915b5050505050905083565b828054600181600116156101000203166002900490600052602060002090601f016020900481019282601f1061046257805160ff191683800117855561048f565b8280016001018555821561048f579182015b8281111561048f578251825591602001919060010190610474565b5061049b92915061049f565b5090565b6104b991905b8082111561049b57600081556001016104a5565b9056fea165627a7a723058201ce040cef70d41f31e027fbddd42009789a31e957bed69bf0cc56c6204a05ead0029",
  "source": "pragma solidity ^0.5.0;\n\ncontract Twitter {\n    uint public tweetCount = 0;\n\n    struct Tweet {\n        uint id;\n        string content;\n        string account;\n    }\n\n    mapping(uint => Tweet) public tweets;\n\n    constructor() public {\n        createTweet(\"my first Tweet\");\n    }\n\n    function createTweet(string memory _content) public {\n        tweetCount ++;\n        tweets[tweetCount] = Tweet(tweetCount, _content, \"myAccount\");\n    }\n\n\n\n\n}",
  "sourcePath": "/Users/alexanderpoppe/OneDrive - EPITA/Courses/Block Chain/EthereumTwitter/contracts/Twitter.sol",
  "compiler": {
    "name": "solc",
    "version": "0.5.0+commit.1d4f565a.Emscripten.clang"
  },
  "schemaVersion": "3.0.1",
  "updatedAt": "2021-05-27T22:15:16.873Z",
  "devdoc": {
    "methods": {}
  },
  "userdoc": {
    "methods": {}
  }
}