{
  "contractName": "Twitter",
  "abi": [
    {
      "constant": true,
      "inputs": [],
      "name": "tweetCount",
      "outputs": [
        {
          "name": "",
          "type": "uint256"
        }
      ],
      "payable": false,
      "stateMutability": "view",
      "type": "function",
      "signature": "0x4a7782b3"
    },
    {
      "constant": true,
      "inputs": [
        {
          "name": "",
          "type": "uint256"
        }
      ],
      "name": "tweets",
      "outputs": [
        {
          "name": "id",
          "type": "uint256"
        },
        {
          "name": "content",
          "type": "string"
        },
        {
          "name": "account",
          "type": "string"
        }
      ],
      "payable": false,
      "stateMutability": "view",
      "type": "function",
      "signature": "0xe8d857b0"
    },
    {
      "inputs": [],
      "payable": false,
      "stateMutability": "nonpayable",
      "type": "constructor",
      "signature": "constructor"
    },
    {
      "constant": false,
      "inputs": [
        {
          "name": "_content",
          "type": "string"
        },
        {
          "name": "_account",
          "type": "string"
        }
      ],
      "name": "createTweet",
      "outputs": [],
      "payable": false,
      "stateMutability": "nonpayable",
      "type": "function",
      "signature": "0x8cd14d30"
    }
  ],
  "bytecode": "0x60806040526000805534801561001457600080fd5b50610542806100246000396000f3fe6080604052600436106100565763ffffffff7c01000000000000000000000000000000000000000000000000000000006000350416634a7782b3811461005b5780638cd14d3014610082578063e8d857b0146101be575b600080fd5b34801561006757600080fd5b506100706102cd565b60408051918252519081900360200190f35b34801561008e57600080fd5b506101bc600480360360408110156100a557600080fd5b8101906020810181356401000000008111156100c057600080fd5b8201836020820111156100d257600080fd5b803590602001918460018302840111640100000000831117156100f457600080fd5b91908080601f016020809104026020016040519081016040528093929190818152602001838380828437600092019190915250929594936020810193503591505064010000000081111561014757600080fd5b82018360208201111561015957600080fd5b8035906020019184600183028401116401000000008311171561017b57600080fd5b91908080601f0160208091040260200160405190810160405280939291908181526020018383808284376000920191909152509295506102d3945050505050565b005b3480156101ca57600080fd5b506101e8600480360360208110156101e157600080fd5b5035610343565b604051808481526020018060200180602001838103835285818151815260200191508051906020019080838360005b8381101561022f578181015183820152602001610217565b50505050905090810190601f16801561025c5780820380516001836020036101000a031916815260200191505b50838103825284518152845160209182019186019080838360005b8381101561028f578181015183820152602001610277565b50505050905090810190601f1680156102bc5780820380516001836020036101000a031916815260200191505b509550505050505060405180910390f35b60005481565b60008054600190810180835560408051606081018252828152602080820188815282840188905293865284815291909420845181559151805192936103209390850192919091019061047b565b506040820151805161033c91600284019160209091019061047b565b5050505050565b600160208181526000928352604092839020805481840180548651600296821615610100026000190190911695909504601f810185900485028601850190965285855290949193929091908301828280156103df5780601f106103b4576101008083540402835291602001916103df565b820191906000526020600020905b8154815290600101906020018083116103c257829003601f168201915b50505060028085018054604080516020601f60001961010060018716150201909416959095049283018590048502810185019091528181529596959450909250908301828280156104715780601f1061044657610100808354040283529160200191610471565b820191906000526020600020905b81548152906001019060200180831161045457829003601f168201915b5050505050905083565b828054600181600116156101000203166002900490600052602060002090601f016020900481019282601f106104bc57805160ff19168380011785556104e9565b828001600101855582156104e9579182015b828111156104e95782518255916020019190600101906104ce565b506104f59291506104f9565b5090565b61051391905b808211156104f557600081556001016104ff565b9056fea165627a7a7230582066f5f139c4d3b281a08ee69dde340737bfcc2ad0345c8edcbaf0c26d056e34370029",
  "source": "pragma solidity ^0.5.0;\n\ncontract Twitter {\n    uint public tweetCount = 0;\n\n    struct Tweet {\n        uint id;\n        string content;\n        string account;\n    }\n\n    mapping(uint => Tweet) public tweets;\n\n    constructor() public {\n//        createTweet(\"my first Tweet\", \"my first account\");\n    }\n\n    function createTweet(string memory _content, string memory _account) public {\n        tweetCount ++;\n        tweets[tweetCount] = Tweet(tweetCount, _content, _account);\n    }\n\n\n\n\n}",
  "sourcePath": "/Users/alexanderpoppe/OneDrive - EPITA/Courses/Block Chain/EthereumTwitter/contracts/Twitter.sol",
  "compiler": {
    "name": "solc",
    "version": "0.5.0+commit.1d4f565a.Emscripten.clang"
  },
  "schemaVersion": "3.0.1",
  "updatedAt": "2021-05-31T22:39:53.577Z",
  "devdoc": {
    "methods": {}
  },
  "userdoc": {
    "methods": {}
  }
}