{
  "contractName": "Twitter",
  "abi": [
    {
      "constant": true,
      "inputs": [],
      "name": "tweetCount",
      "outputs": [
        {
          "name": "",
          "type": "uint256"
        }
      ],
      "payable": false,
      "stateMutability": "view",
      "type": "function",
      "signature": "0x4a7782b3"
    }
  ],
  "bytecode": "0x608060405260008055348015601357600080fd5b50609e806100226000396000f3fe608060405260043610603f576000357c0100000000000000000000000000000000000000000000000000000000900463ffffffff1680634a7782b3146044575b600080fd5b348015604f57600080fd5b506056606c565b6040518082815260200191505060405180910390f35b6000548156fea165627a7a7230582066c22be3d02314c251d3b3fee19a871623125380e7bd69d638d8b14e2d3deb610029",
  "source": "pragma solidity ^0.5.0;\n\ncontract Twitter {\n    uint public tweetCount = 0;\n}",
  "sourcePath": "/Users/alexanderpoppe/OneDrive - EPITA/Courses/Block Chain/EthereumTwitter/contracts/Twitter.sol",
  "compiler": {
    "name": "solc",
    "version": "0.5.0+commit.1d4f565a.Emscripten.clang"
  },
  "schemaVersion": "3.0.1",
  "updatedAt": "2021-05-27T20:54:17.483Z",
  "devdoc": {
    "methods": {}
  },
  "userdoc": {
    "methods": {}
  }
}